{
  "address": "0x3aaDB7Ed348C7947F7D25da0F907C65d0637deBe",
  "abi": [
    {
      "inputs": [
        {
          "internalType": "address",
          "name": "priceFeedAddress",
          "type": "address"
        }
      ],
      "stateMutability": "nonpayable",
      "type": "constructor"
    },
    {
      "inputs": [],
      "name": "FundMe__NotOwner",
      "type": "error"
    },
    {
      "stateMutability": "payable",
      "type": "fallback"
    },
    {
      "inputs": [],
      "name": "MINIMUM_USD",
      "outputs": [
        {
          "internalType": "uint256",
          "name": "",
          "type": "uint256"
        }
      ],
      "stateMutability": "view",
      "type": "function"
    },
    {
      "inputs": [],
      "name": "fund",
      "outputs": [],
      "stateMutability": "payable",
      "type": "function"
    },
    {
      "inputs": [
        {
          "internalType": "address",
          "name": "funder",
          "type": "address"
        }
      ],
      "name": "getAddressToAmountFunded",
      "outputs": [
        {
          "internalType": "uint256",
          "name": "",
          "type": "uint256"
        }
      ],
      "stateMutability": "view",
      "type": "function"
    },
    {
      "inputs": [
        {
          "internalType": "uint256",
          "name": "index",
          "type": "uint256"
        }
      ],
      "name": "getFunder",
      "outputs": [
        {
          "internalType": "address",
          "name": "",
          "type": "address"
        }
      ],
      "stateMutability": "view",
      "type": "function"
    },
    {
      "inputs": [],
      "name": "getOwner",
      "outputs": [
        {
          "internalType": "address",
          "name": "",
          "type": "address"
        }
      ],
      "stateMutability": "view",
      "type": "function"
    },
    {
      "inputs": [],
      "name": "getPriceFeed",
      "outputs": [
        {
          "internalType": "contract AggregatorV3Interface",
          "name": "",
          "type": "address"
        }
      ],
      "stateMutability": "view",
      "type": "function"
    },
    {
      "inputs": [],
      "name": "withdraw",
      "outputs": [],
      "stateMutability": "payable",
      "type": "function"
    },
    {
      "stateMutability": "payable",
      "type": "receive"
    }
  ],
  "transactionHash": "0xaea50ee0614b8a94bd1049d9ea85123046a2fd814a445fd384617cde7c5b87d0",
  "args": [
    "0x694aa1769357215de4fac081bf1f309adc325306"
  ],
  "numDeployments": 2,
  "solcInputHash": "da99a7c41a60c027eea8ba14037a5dc4",
  "bytecode": "0x60a060405234801561001057600080fd5b50604051620010183803806200101883398181016040528101906100349190610115565b3373ffffffffffffffffffffffffffffffffffffffff1660808173ffffffffffffffffffffffffffffffffffffffff1660601b8152505080600260006101000a81548173ffffffffffffffffffffffffffffffffffffffff021916908373ffffffffffffffffffffffffffffffffffffffff16021790555050610142565b600080fd5b600073ffffffffffffffffffffffffffffffffffffffff82169050919050565b60006100e2826100b7565b9050919050565b6100f2816100d7565b81146100fd57600080fd5b50565b60008151905061010f816100e9565b92915050565b60006020828403121561012b5761012a6100b2565b5b600061013984828501610100565b91505092915050565b60805160601c610eb0620001686000396000818161031001526105c30152610eb06000f3fe6080604052600436106100745760003560e01c8063893d20e81161004e578063893d20e8146100ff5780639e87a5cd1461012a578063b60d428814610155578063d7b4750c1461015f57610083565b80630343fb251461008d5780633ccfd60b146100ca5780636b69a592146100d457610083565b366100835761008161019c565b005b61008b61019c565b005b34801561009957600080fd5b506100b460048036038101906100af919061083e565b6102c5565b6040516100c19190610884565b60405180910390f35b6100d261030e565b005b3480156100e057600080fd5b506100e96105b2565b6040516100f69190610884565b60405180910390f35b34801561010b57600080fd5b506101146105bf565b60405161012191906108ae565b60405180910390f35b34801561013657600080fd5b5061013f6105e7565b60405161014c9190610928565b60405180910390f35b61015d61019c565b005b34801561016b57600080fd5b506101866004803603810190610181919061096f565b610611565b60405161019391906108ae565b60405180910390f35b6802b5e3af16b18800006101db600260009054906101000a900473ffffffffffffffffffffffffffffffffffffffff163461065890919063ffffffff16565b101561021c576040517f08c379a0000000000000000000000000000000000000000000000000000000008152600401610213906109f9565b60405180910390fd5b6000339080600181540180825580915050600190039060005260206000200160009091909190916101000a81548173ffffffffffffffffffffffffffffffffffffffff021916908373ffffffffffffffffffffffffffffffffffffffff16021790555034600160003373ffffffffffffffffffffffffffffffffffffffff1673ffffffffffffffffffffffffffffffffffffffff16815260200190815260200160002081905550565b6000600160008373ffffffffffffffffffffffffffffffffffffffff1673ffffffffffffffffffffffffffffffffffffffff168152602001908152602001600020549050919050565b7f000000000000000000000000000000000000000000000000000000000000000073ffffffffffffffffffffffffffffffffffffffff163373ffffffffffffffffffffffffffffffffffffffff1614610393576040517f579610db00000000000000000000000000000000000000000000000000000000815260040160405180910390fd5b60008080548060200260200160405190810160405280929190818152602001828054801561041657602002820191906000526020600020905b8160009054906101000a900473ffffffffffffffffffffffffffffffffffffffff1673ffffffffffffffffffffffffffffffffffffffff16815260200190600101908083116103cc575b5050505050905060005b81518110156104a157600082828151811061043e5761043d610a19565b5b602002602001015190506000600160008373ffffffffffffffffffffffffffffffffffffffff1673ffffffffffffffffffffffffffffffffffffffff1681526020019081526020016000208190555050808061049990610a77565b915050610420565b50600067ffffffffffffffff8111156104bd576104bc610ac0565b5b6040519080825280602002602001820160405280156104eb5781602001602082028036833780820191505090505b5060009080519060200190610501929190610734565b5060003373ffffffffffffffffffffffffffffffffffffffff164760405161052890610b20565b60006040518083038185875af1925050503d8060008114610565576040519150601f19603f3d011682016040523d82523d6000602084013e61056a565b606091505b50509050806105ae576040517f08c379a00000000000000000000000000000000000000000000000000000000081526004016105a590610b81565b60405180910390fd5b5050565b6802b5e3af16b188000081565b60007f0000000000000000000000000000000000000000000000000000000000000000905090565b6000600260009054906101000a900473ffffffffffffffffffffffffffffffffffffffff16905090565b600080828154811061062657610625610a19565b5b9060005260206000200160009054906101000a900473ffffffffffffffffffffffffffffffffffffffff169050919050565b60008061066483610694565b90506000670de0b6b3a7640000858361067d9190610ba1565b6106879190610c2a565b9050809250505092915050565b6000808273ffffffffffffffffffffffffffffffffffffffff1663feaf968c6040518163ffffffff1660e01b815260040160a06040518083038186803b1580156106dd57600080fd5b505afa1580156106f1573d6000803e3d6000fd5b505050506040513d601f19601f820116820180604052508101906107159190610ce8565b5050509150506402540be4008161072c9190610d63565b915050919050565b8280548282559060005260206000209081019282156107ad579160200282015b828111156107ac5782518260006101000a81548173ffffffffffffffffffffffffffffffffffffffff021916908373ffffffffffffffffffffffffffffffffffffffff16021790555091602001919060010190610754565b5b5090506107ba91906107be565b5090565b5b808211156107d75760008160009055506001016107bf565b5090565b600080fd5b600073ffffffffffffffffffffffffffffffffffffffff82169050919050565b600061080b826107e0565b9050919050565b61081b81610800565b811461082657600080fd5b50565b60008135905061083881610812565b92915050565b600060208284031215610854576108536107db565b5b600061086284828501610829565b91505092915050565b6000819050919050565b61087e8161086b565b82525050565b60006020820190506108996000830184610875565b92915050565b6108a881610800565b82525050565b60006020820190506108c3600083018461089f565b92915050565b6000819050919050565b60006108ee6108e96108e4846107e0565b6108c9565b6107e0565b9050919050565b6000610900826108d3565b9050919050565b6000610912826108f5565b9050919050565b61092281610907565b82525050565b600060208201905061093d6000830184610919565b92915050565b61094c8161086b565b811461095757600080fd5b50565b60008135905061096981610943565b92915050565b600060208284031215610985576109846107db565b5b60006109938482850161095a565b91505092915050565b600082825260208201905092915050565b7f596f75206e65656420746f207370656e64206d6f726520455448210000000000600082015250565b60006109e3601b8361099c565b91506109ee826109ad565b602082019050919050565b60006020820190508181036000830152610a12816109d6565b9050919050565b7f4e487b7100000000000000000000000000000000000000000000000000000000600052603260045260246000fd5b7f4e487b7100000000000000000000000000000000000000000000000000000000600052601160045260246000fd5b6000610a828261086b565b91507fffffffffffffffffffffffffffffffffffffffffffffffffffffffffffffffff821415610ab557610ab4610a48565b5b600182019050919050565b7f4e487b7100000000000000000000000000000000000000000000000000000000600052604160045260246000fd5b600081905092915050565b50565b6000610b0a600083610aef565b9150610b1582610afa565b600082019050919050565b6000610b2b82610afd565b9150819050919050565b7f43616c6c206661696c6564000000000000000000000000000000000000000000600082015250565b6000610b6b600b8361099c565b9150610b7682610b35565b602082019050919050565b60006020820190508181036000830152610b9a81610b5e565b9050919050565b6000610bac8261086b565b9150610bb78361086b565b9250817fffffffffffffffffffffffffffffffffffffffffffffffffffffffffffffffff0483118215151615610bf057610bef610a48565b5b828202905092915050565b7f4e487b7100000000000000000000000000000000000000000000000000000000600052601260045260246000fd5b6000610c358261086b565b9150610c408361086b565b925082610c5057610c4f610bfb565b5b828204905092915050565b600069ffffffffffffffffffff82169050919050565b610c7a81610c5b565b8114610c8557600080fd5b50565b600081519050610c9781610c71565b92915050565b6000819050919050565b610cb081610c9d565b8114610cbb57600080fd5b50565b600081519050610ccd81610ca7565b92915050565b600081519050610ce281610943565b92915050565b600080600080600060a08688031215610d0457610d036107db565b5b6000610d1288828901610c88565b9550506020610d2388828901610cbe565b9450506040610d3488828901610cd3565b9350506060610d4588828901610cd3565b9250506080610d5688828901610c88565b9150509295509295909350565b6000610d6e82610c9d565b9150610d7983610c9d565b9250827f7fffffffffffffffffffffffffffffffffffffffffffffffffffffffffffffff0482116000841360008413161615610db857610db7610a48565b5b817f80000000000000000000000000000000000000000000000000000000000000000583126000841260008413161615610df557610df4610a48565b5b827f80000000000000000000000000000000000000000000000000000000000000000582126000841360008412161615610e3257610e31610a48565b5b827f7fffffffffffffffffffffffffffffffffffffffffffffffffffffffffffffff0582126000841260008412161615610e6f57610e6e610a48565b5b82820290509291505056fea26469706673582212208a56789cc4e7d0bb94be95241e38f9b2029e8217d07a1cd344ce659a28d7109264736f6c63430008080033",
  "devdoc": {
    "author": "Oscar Puldo",
    "details": "This contract is not actively maintained",
    "kind": "dev",
    "methods": {},
    "title": "A contract for crowd funding",
    "version": 1
  },
  "userdoc": {
    "kind": "user",
    "methods": {},
    "notice": "You can use this contract for only the most basic simulation",
    "version": 1
  },
  "storageLayout": {
    "storage": [
      {
        "astId": 65,
        "contract": "contracts/FundMe.sol:FundMe",
        "label": "s_funders",
        "offset": 0,
        "slot": "0",
        "type": "t_array(t_address)dyn_storage"
      },
      {
        "astId": 69,
        "contract": "contracts/FundMe.sol:FundMe",
        "label": "s_addressToAmountFunded",
        "offset": 0,
        "slot": "1",
        "type": "t_mapping(t_address,t_uint256)"
      },
      {
        "astId": 72,
        "contract": "contracts/FundMe.sol:FundMe",
        "label": "s_priceFeed",
        "offset": 0,
        "slot": "2",
        "type": "t_contract(AggregatorV3Interface)45"
      }
    ],
    "types": {
      "t_address": {
        "encoding": "inplace",
        "label": "address",
        "numberOfBytes": "20"
      },
      "t_array(t_address)dyn_storage": {
        "base": "t_address",
        "encoding": "dynamic_array",
        "label": "address[]",
        "numberOfBytes": "32"
      },
      "t_contract(AggregatorV3Interface)45": {
        "encoding": "inplace",
        "label": "contract AggregatorV3Interface",
        "numberOfBytes": "20"
      },
      "t_mapping(t_address,t_uint256)": {
        "encoding": "mapping",
        "key": "t_address",
        "label": "mapping(address => uint256)",
        "numberOfBytes": "32",
        "value": "t_uint256"
      },
      "t_uint256": {
        "encoding": "inplace",
        "label": "uint256",
        "numberOfBytes": "32"
      }
    }
  }
}